{
  "_format": "hh-sol-artifact-1",
  "contractName": "MedicalAccessControl",
  "sourceName": "contracts/medicrypt.sol",
  "abi": [
    {
      "anonymous": false,
      "inputs": [
        {
          "indexed": true,
          "internalType": "address",
          "name": "patient",
          "type": "address"
        },
        {
          "indexed": true,
          "internalType": "address",
          "name": "doctor",
          "type": "address"
        },
        {
          "indexed": false,
          "internalType": "uint256",
          "name": "timestamp",
          "type": "uint256"
        }
      ],
      "name": "AccessGranted",
      "type": "event"
    },
    {
      "anonymous": false,
      "inputs": [
        {
          "indexed": true,
          "internalType": "address",
          "name": "patient",
          "type": "address"
        },
        {
          "indexed": true,
          "internalType": "address",
          "name": "doctor",
          "type": "address"
        },
        {
          "indexed": false,
          "internalType": "uint256",
          "name": "timestamp",
          "type": "uint256"
        }
      ],
      "name": "AccessRequested",
      "type": "event"
    },
    {
      "anonymous": false,
      "inputs": [
        {
          "indexed": true,
          "internalType": "address",
          "name": "patient",
          "type": "address"
        },
        {
          "indexed": false,
          "internalType": "string",
          "name": "newCID",
          "type": "string"
        }
      ],
      "name": "RecordUpdated",
      "type": "event"
    },
    {
      "inputs": [
        {
          "internalType": "address",
          "name": "doctor",
          "type": "address"
        }
      ],
      "name": "grantAccess",
      "outputs": [],
      "stateMutability": "nonpayable",
      "type": "function"
    },
    {
      "inputs": [
        {
          "internalType": "address",
          "name": "",
          "type": "address"
        }
      ],
      "name": "latestRecordCID",
      "outputs": [
        {
          "internalType": "string",
          "name": "",
          "type": "string"
        }
      ],
      "stateMutability": "view",
      "type": "function"
    },
    {
      "inputs": [
        {
          "internalType": "address",
          "name": "patient",
          "type": "address"
        }
      ],
      "name": "requestAccess",
      "outputs": [],
      "stateMutability": "nonpayable",
      "type": "function"
    },
    {
      "inputs": [
        {
          "internalType": "string",
          "name": "newCID",
          "type": "string"
        }
      ],
      "name": "updateRecord",
      "outputs": [],
      "stateMutability": "nonpayable",
      "type": "function"
    }
  ],
  "bytecode": "0x6080604052348015600f57600080fd5b506108c08061001f6000396000f3fe608060405234801561001057600080fd5b506004361061004c5760003560e01c8063022cb271146100515780630ae5e7391461006d578063123a3671146100895780631624e985146100b9575b600080fd5b61006b6004803603810190610066919061034f565b6100d5565b005b6100876004803603810190610082919061034f565b61013d565b005b6100a3600480360381019061009e919061034f565b6101a5565b6040516100b0919061040c565b60405180910390f35b6100d360048036038101906100ce9190610493565b610245565b005b3373ffffffffffffffffffffffffffffffffffffffff168173ffffffffffffffffffffffffffffffffffffffff167f4cbb769395bcdc5d830a1e7559d3eb3153a961121c3ea3c8474b2c43b9ebdc4e4260405161013291906104f9565b60405180910390a350565b8073ffffffffffffffffffffffffffffffffffffffff163373ffffffffffffffffffffffffffffffffffffffff167f65d0cc1e52d49938ca4ad9f423c79c1b84d914b9a683fbc5d3f93ac3cc5635f54260405161019a91906104f9565b60405180910390a350565b600060205280600052604060002060009150905080546101c490610543565b80601f01602080910402602001604051908101604052809291908181526020018280546101f090610543565b801561023d5780601f106102125761010080835404028352916020019161023d565b820191906000526020600020905b81548152906001019060200180831161022057829003601f168201915b505050505081565b81816000803373ffffffffffffffffffffffffffffffffffffffff1673ffffffffffffffffffffffffffffffffffffffff168152602001908152602001600020918261029292919061075a565b503373ffffffffffffffffffffffffffffffffffffffff167fcbb1b4c24d9260bba47f2146590804a946328be68decda465172d3750cbae46e83836040516102db929190610866565b60405180910390a25050565b600080fd5b600080fd5b600073ffffffffffffffffffffffffffffffffffffffff82169050919050565b600061031c826102f1565b9050919050565b61032c81610311565b811461033757600080fd5b50565b60008135905061034981610323565b92915050565b600060208284031215610365576103646102e7565b5b60006103738482850161033a565b91505092915050565b600081519050919050565b600082825260208201905092915050565b60005b838110156103b657808201518184015260208101905061039b565b60008484015250505050565b6000601f19601f8301169050919050565b60006103de8261037c565b6103e88185610387565b93506103f8818560208601610398565b610401816103c2565b840191505092915050565b6000602082019050818103600083015261042681846103d3565b905092915050565b600080fd5b600080fd5b600080fd5b60008083601f8401126104535761045261042e565b5b8235905067ffffffffffffffff8111156104705761046f610433565b5b60208301915083600182028301111561048c5761048b610438565b5b9250929050565b600080602083850312156104aa576104a96102e7565b5b600083013567ffffffffffffffff8111156104c8576104c76102ec565b5b6104d48582860161043d565b92509250509250929050565b6000819050919050565b6104f3816104e0565b82525050565b600060208201905061050e60008301846104ea565b92915050565b7f4e487b7100000000000000000000000000000000000000000000000000000000600052602260045260246000fd5b6000600282049050600182168061055b57607f821691505b60208210810361056e5761056d610514565b5b50919050565b600082905092915050565b7f4e487b7100000000000000000000000000000000000000000000000000000000600052604160045260246000fd5b60008190508160005260206000209050919050565b60006020601f8301049050919050565b600082821b905092915050565b6000600883026106107fffffffffffffffffffffffffffffffffffffffffffffffffffffffffffffffff826105d3565b61061a86836105d3565b95508019841693508086168417925050509392505050565b6000819050919050565b600061065761065261064d846104e0565b610632565b6104e0565b9050919050565b6000819050919050565b6106718361063c565b61068561067d8261065e565b8484546105e0565b825550505050565b600090565b61069a61068d565b6106a5818484610668565b505050565b5b818110156106c9576106be600082610692565b6001810190506106ab565b5050565b601f82111561070e576106df816105ae565b6106e8846105c3565b810160208510156106f7578190505b61070b610703856105c3565b8301826106aa565b50505b505050565b600082821c905092915050565b600061073160001984600802610713565b1980831691505092915050565b600061074a8383610720565b9150826002028217905092915050565b6107648383610574565b67ffffffffffffffff81111561077d5761077c61057f565b5b6107878254610543565b6107928282856106cd565b6000601f8311600181146107c157600084156107af578287013590505b6107b9858261073e565b865550610821565b601f1984166107cf866105ae565b60005b828110156107f7578489013582556001820191506020850194506020810190506107d2565b868310156108145784890135610810601f891682610720565b8355505b6001600288020188555050505b50505050505050565b82818337600083830152505050565b60006108458385610387565b935061085283858461082a565b61085b836103c2565b840190509392505050565b60006020820190508181036000830152610881818486610839565b9050939250505056fea26469706673582212209dd1bdd587ac98f4b3c4b95536884c2f3976ecc31c6c665a8791d9840ae0113464736f6c634300081c0033",
  "linkReferences": {},
  "deployedLinkReferences": {}
}